:020000040800F2
:10000000F014002029020008150500081705000853
:100010001B0500081F05000823050008000000005C
:10002000000000000000000000000000270500089C
:1000300029050008000000002B0500082D05000818
:10004000430200084302000843020008430200087C
:10005000430200084302000843020008430200086C
:10006000430200084302000843020008430200085C
:10007000430200084302000843020008430200084C
:10008000430200084302000843020008430200083C
:10009000430200084302000843020008FD3E000836
:1000A000430200084302000843020008430200081C
:1000B0003505000843020008430200084302000817
:1000C00043020008430200084302000843020008FC
:1000D00043020008430200084302000843020008EC
:1000E00043020008430200084302000843020008DC
:1000F00043020008430200084302000843020008CC
:1001000043020008430200084302000843020008BB
:1001100043020008430200084302000843020008AB
:10012000430200084302000843020008430200089B
:10013000430200084302000843020008430200088B
:10014000430200084302000843020008430200087B
:10015000430200084302000843020008430200086B
:10016000430200084302000843020008430200085B
:10017000430200084302000843020008430200084B
:10018000430200084302000800F002F800F03CF8C7
:100190000AA090E8000C82448344AAF10107DA45E2
:1001A00001D100F031F8AFF2090EBAE80F0013F0F8
:1001B000010F18BFFB1A43F00103184760AD0000A0
:1001C00080AD0000103A24BF78C878C1FAD8520731
:1001D00024BF30C830C144BF04680C6070470000C1
:1001E0000023002400250026103A28BF78C1FBD840
:1001F000520728BF30C148BF0B6070471FB506F0DB
:1002000068F91FBD10B510BD05F0C4FA1146FFF71F
:10021000F5FF00F029F805F0E2FA03B4FFF7F2FF6A
:1002200003BC05F0E3FA000009488047094800478D
:10023000FEE7FEE7FEE7FEE7FEE7FEE7FEE7FEE796
:10024000FEE7FEE704480549054A064B70470000F3
:100250002706000889010008F00E0020F014002095
:10026000F0100020F01000202DED0C8B86B0002443
:10027000002501231A46190201A805F0ADF9964898
:1002800002F0FCFA02F0B8FC002002F074FE00213B
:100290004FF4784002F040FE1DE1002500245DE0AF
:1002A0009FED8E0A8E4800EB850080ED000A8D4898
:1002B000006806F09DF841EC100BB0EE40BAF0EE8D
:1002C00060BA204605F044FE41EC100BB0EE40DA77
:1002D000F0EE60DA9FED840B53EC102B51EC1D0B0C
:1002E00005F086FE41EC100BB0EE40CAF0EE60CA9D
:1002F00053EC1B2B51EC1C0B05F07AFE41EC100B60
:10030000B0EE40AAF0EE60AA9FED790B53EC102BF3
:1003100051EC1A0B05F080FC41EC100BB0EE409A4A
:10032000F0EE609A51EC190B05F038FC08EE100A5B
:10033000B0EE480A05F074FA694800EB850080EDDC
:10034000000A681C85B29FED650A654800EB8500D0
:1003500080ED000A681C85B2601C84B2FF2C9FDD12
:10036000604890ED000ADFED640A30EE200A80ED6F
:10037000000A90ED000ADFED610AB4EEE00AF1EE4A
:1003800010FA03DD9FED550A80ED000A544901A8DB
:1003900005F001F94FF480725949514804F0DCF836
:1003A00000249FED580A584880ED000A16E0544892
:1003B00000EB840090ED000A5348D0ED000AB4EE43
:1003C000E00AF1EE10FA07DD4D4800EB840090EDF5
:1003D000000A4D4880ED000A601C84B2FF2CE6DD67
:1003E000494890ED000ADFED490A80EE201A80EDC1
:1003F000001A012457E00021084602F08DFD444E0A
:10040000601C36F81000C0F59B7083B2601C82B28D
:10041000304630F81400C0F59B7081B2204603F0DE
:1004200009F800214FF4784002F076FD3449601C51
:1004300001EB800090ED000A3348D0ED000A80EE19
:10044000201ABDEEC10A10EE100AC0F59B7086B2EC
:10045000084600EB840090ED000A2B48D0ED000A1E
:1004600080EE201ABDEEC10A10EE100AC0F59B7096
:1004700087B2601C82B233463946204602F0DAFF6A
:100480001F4800EB840090ED000A1F48D0ED000AE1
:1004900080EE201ABDEEC10A10EE100A1C4921F8A8
:1004A0001400601C84B2E72CA5DB154800EB840027
:1004B00090ED000A1448D0ED000A80EE201ABDEE3F
:1004C000C10A10EE100A124921F81400002440F667
:1004D000FF7002F0D3F9E0E6FFFF0F00000000001C
:1004E00054060020000000201F85EB51B81E194063
:1004F0000000000000007040CDCCCC3D0000C842A0
:10050000540000200000C8C20800002000009643EC
:1005100054040020704700BFFEE700BFFEE700BFA5
:10052000FEE700BFFEE770477047704710B502F066
:10053000B4F910BD10B50121880702F0B2F818B166
:100540000121880702F0BEF810BD00000CB50020A4
:10055000019000907548006840F48030734908604D
:1005600000BF7248006800F4003000900198401C01
:100570000190009818B90198B0F5A06FF1D16B48BF
:10058000006810F4003F02D00120009001E000203C
:1005900000900098012845D164484030006840F040
:1005A00080506249403108606148006840F48040F2
:1005B0005F4908605D48083000685C4908310860A0
:1005C0000846006840F4004008600846006840F4AF
:1005D000A05008605748091F0860081F006840F0D5
:1005E0008070091F086000BF5048006810F0007F4D
:1005F000FAD040F20560504908604C480830006865
:1006000020F003004949083108600846006840F0BE
:100610000200086000BF45480830006800F00C0088
:100620000828F8D10CBD10B54448006840F47000AB
:10063000424908603D48006840F001003B490860BD
:1006400000203A4908310860384800683C490840B1
:10065000364908603B48091D0860081F006820F4FF
:100660008020091F0860002030490C310860FFF726
:100670006DFF4FF0006031498039086010BD70B5E2
:1006800000200022022300240221284D08352D6875
:1006900005F00C0020B1042806D0082834D107E06A
:1006A000294D2A4E356033E0294D284E35602FE024
:1006B0001E4D2D1D2D68C5F380541C4D2D1D2D681C
:1006C00005F03F0154B1224DB5FBF1F5174E361D33
:1006D0003668C6F3881605FB06F209E01A4DB5FB2D
:1006E000F1F5124E361D3668C6F3881605FB06F284
:1006F0000E4D2D1D2D68C5F301456D1C6B00B2FB21
:10070000F3F5124E356003E00F4D104E356000BF1B
:1007100000BF064D08352D68C5F303150D4E705DFD
:100720000A4D2D68C540094E356070BD0038024045
:100730000070004019544007003C024088ED00E082
:10074000FFFFF6FE103000240024F4000C0000200F
:1007500040787D011000002033490143334A116085
:10076000704770B5002100230F22C47824B32F4CAA
:10077000246804F4E064C4F5E064C4F30721C1F123
:100780000404E3B20A4144789C40E1B28478144006
:1007900021430C07210E264C05786155047804F09E
:1007A0001F050124AC4005786D114FF0E02606EBE3
:1007B0008505C5F8004109E0047804F01F0401250F
:1007C000A5401C4C0678761144F8265070BD1A4A94
:1007D0000A400243154B1B1F1A60704739B1134A78
:1007E000121D12680243114B1B1D1A6006E00F4ACE
:1007F000121D126882430D4B1B1D1A60704704289E
:1008000008D14FF0E021096941F004014FF0E022E6
:10081000116107E04FF0E021096921F004014FF078
:10082000E0221161704700000000FA050CED00E0C5
:1008300000E400E080E100E080FFFF1F0020444969
:100840000860091D0860091D0860091D086041480D
:100850003F4914310860704700213D498279002AE0
:100860003AD00A46126803689A430B461A600A1D7A
:10087000126803689A430B1D1A60027911440A68D2
:1008800003681A430A60324A0832126803689A43BE
:100890002F4B08331A601A1D126803689A432C4BB9
:1008A0000C331A604279102A0ED11A1F126803689D
:1008B0001A43274B08331A601A1D126803681A433B
:1008C000234B0C331A600DE02149427911440A6828
:1008D00003681A430A6005E0027911440A68036854
:1008E0009A430A6070470021016001710C21417137
:1008F0000021817170471649103109680143144A7B
:1009000010321160704701460020114A14321268FB
:100910000A4201D0012000E0002070470C49143148
:1009200008607047014600200022094B1B6803EA5B
:100930000102074B14331B680B4202D00AB101209D
:1009400000E0002070470249143108607047000041
:10095000003C0140FFFF7F0030B943F2DB014FF064
:10096000204242F8201005E043F2D2014FF020422D
:1009700042F820106FF07042411C4FF0204343F8C2
:10098000212011461A4602EB8002C2F8041170477A
:10099000D0E901121143C26811430269114342694F
:1009A000114382691143C2691143026A1143426AC9
:1009B0001143826A1143C26A1143026B11434FF023
:1009C0002043026843F822108168082908D11A469A
:1009D000016852F8211041F04001026843F82210EA
:1009E000416B0968426B526841EA0211426B92689E
:1009F00041EA0221426B928941EA0241426B128A2A
:100A000041EA0251426B127D41EA0261426B9269F6
:100A100011430268521C4FF0204343F82210C16A70
:100A2000B1F5804F1AD1816B0968826B526841EA37
:100A30000211826B926841EA0221826B128A41EABA
:100A40000251826B127D41EA0261826B926911430D
:100A5000026803EB8202C2F8041108E06FF07041F3
:100A60004FF02043026803EB8202C2F80411704782
:100A7000002101600221416000218160C1600161AB
:100A800041618161C16101624FF48051416249005D
:100A900081620021C16201630F21426B1160426BD0
:100AA0005160FF21426B91600F21426BD160426B1C
:100AB0001161426B51610021426B91610F21826B88
:100AC0001160826B5160FF21826B91600F21826BFC
:100AD000D160826B1161826B51610021826B9161E7
:100AE000704751B14FF0204252F8202042F00102ED
:100AF0004FF0204343F8202009E04FF0204252F805
:100B00002020F84B1A404FF0204343F82020704734
:100B100010280AD118214FF0204211664021516659
:100B20004FF0FC319166D16610E01821EE4A116059
:100B30004FF040014FF02042C2F884104FF0FC31DA
:100B4000EA4A11604FF02042C2F88C10704730B56D
:100B5000002100220023446844F0080485682C43E7
:100B6000C5682C4305692C43456944EA45248569D9
:100B700044EA4531C4692468C5696D6844EA0524BE
:100B8000C5692D8944EA0544C5692D7B44EA05629F
:100B9000046A2468056A6D6844EA0524056A2D899B
:100BA00044EA0544056A2D7B44EA05630468102C79
:100BB00005D14FF020442166A266E36607E0CA4CE7
:100BC00021604FF02044C4F88820C94C236030BD18
:100BD00010210160002141608160C16001614161BB
:100BE0008161FC21C2691160C2695160C269916072
:100BF000C269D160026A1160026A5160026A916042
:100C0000026AD160704799B1102808D14FF0204294
:100C1000126E42F004024FF020431A661DE0B24A01
:100C2000126842F004024FF02043C3F8802014E021
:100C3000102809D14FF02042126EAA4BDB1E1A4039
:100C40004FF020431A6608E0A74A1268A94B02EA4F
:100C500003024FF02043C3F88020704799B1102859
:100C600008D14FF02042126E42F040024FF0204374
:100C70001A661DE09C4A126842F040024FF0204381
:100C8000C3F8802014E0102809D14FF02042126EE2
:100C9000984B3C3B1A404FF020431A6608E0924ABA
:100CA0001268954B02EA03024FF02043C3F88020FC
:100CB000704701460020102903D14FF02042506FA9
:100CC00001E08E4A1068704718208D4908604FF087
:100CD00000004FF02041C1F8A4004FF0FC308949DA
:100CE000086001F10401086001F104010860704727
:100CF000016841F01001426841EA4221826841EAFC
:100D000042317F4A1160C1680968C268526841EA8D
:100D10000221C268128941EA0241C268127B41EA9B
:100D20000261784A1160016909680269526841EA02
:100D300002210269128941EA02410269127B41EAF9
:100D40000261714A1160416909684269526841EA69
:100D500002214269128941EA02414269127B41EA59
:100D600002614FF02042C2F8B010704700210160CC
:100D700041608160FC21C2681160C2685160C26834
:100D80009160C268D16002691160026951600269B4
:100D900091600269D16042691160426951604269A3
:100DA00091604269D160704740B15549096841F08E
:100DB00004014FF02042C2F8A01008E05049096831
:100DC0004C4A01EA02014FF02042C2F8A0107047DD
:100DD00010B5F2B1102807D14FF020435B6E0B43E2
:100DE0004FF02044636632E0B0F5807F08D1474B76
:100DF0001B6843EA01034FF02044C4F8843026E026
:100E0000434B1B6843EA01034FF02044C4F8A4306D
:100E10001DE0102807D14FF020435B6E8B434FF04D
:100E20002044636613E0B0F5807F08D1374B1B6820
:100E300023EA01034FF02044C4F8843007E0344B28
:100E40001B6823EA01034FF02044C4F8A43010BD0E
:100E500010B5024600200023102A03D14FF0204491
:100E6000636E07E0B2F5807F02D1284C236801E071
:100E7000274C23680B4201D0012000E0002010BD68
:100E8000102807D14FF02042526E8A434FF0204382
:100E90005A6613E0B0F5807F08D11C4A126822EA36
:100EA00001024FF02043C3F8842007E0184A12687B
:100EB00022EA01024FF02043C3F8A420704770B526
:100EC00002460020002300240025102A03D14FF001
:100ED0002046736E20E0B2F5807F1BD10B4E336845
:100EE0001AE00000FEFF0F00800000A0880000A0B4
:100EF0008C0000A0FBFF0F00BFFF0F00940000A0BC
:100F0000A00000A0A80000A0AC0000A0840000A0E9
:100F1000A40000A0154E336803EA010403EAD105DA
:100F200014B10DB1012000E0002070BD102808D1DF
:100F30004FF02042526E22EAD1024FF020435A660F
:100F400013E0B0F5807F08D1094A126822EAD10285
:100F50004FF02043C3F8842007E0044A126822EAD5
:100F6000D1024FF02043C3F8A4207047A40000A092
:100F7000840000A010B504468C48844208D10121A9
:100F8000084600F000FB0021012000F0FCFA5EE0C2
:100F90008748844208D10121022000F0F4FA0021A0
:100FA000022000F0F0FA52E08248844208D1012188
:100FB000042000F0E8FA0021042000F0E4FA46E002
:100FC0007D48844208D10121082000F0DCFA00218C
:100FD000082000F0D8FA3AE07848844208D101218C
:100FE000102000F0D0FA0021102000F0CCFA2EE002
:100FF0007348844208D10121202000F0C4FA002166
:10100000202000F0C0FA22E06E48844208D101217D
:10101000402000F0B8FA0021402000F0B4FA16E0B9
:101020006948844208D10121802000F0ACFA0021F7
:10103000802000F0A8FA0AE06448844207D1012128
:10104000801500F0A0FA0021A01500F09CFA10BD58
:10105000F0B50A4600210023002400BF3DE0012531
:1010600005FA01F3156805EA03049C4234D10568CA
:101070004F000326BE40B543056015794E00B540CC
:101080000668354305601579012D02D01579022DCA
:1010900016D185684F000326BE40B543856055795B
:1010A0004E00B540866835438560456801268E4010
:1010B000B5434560456896798E40B6B23543456084
:1010C000C5684F000326BE40B543C560D5794E00C4
:1010D000B540C6683543C560491C1029BFD3F0BD73
:1010E0004FF6FF7101600021017141718171C17181
:1010F000704708B54FF480320092009A0A4300927C
:10110000009AC261C161009AC261C2690092C2695B
:10111000009208BD0246002013690B4201D0012055
:1011200000E0002070470146086980B2704702461F
:10113000002053690B4201D0012000E000207047DD
:101140000146486980B27047018370474183704708
:101150000AB1018300E041837047416170474269F1
:101160004A4042617047F0B5002300244D07ED0E60
:1011700002FA05F3CE1000F1200555F826504E076F
:10118000F70E0F26BE40B543CF1000F1200646F8FB
:101190002750CE1000F1200555F8265045EA0304EB
:1011A000CE1000F1200545F82640F0BD00000240B9
:1011B0000004024000080240000C024000100240FF
:1011C0000014024000180240001C024000200240AF
:1011D000FA48006840F00100F84908600020F7492B
:1011E00008310860F5480068F5490840F34908608F
:1011F000F448091D0860081F006820F48020091FBA
:1012000008600020ED490C31086070470021EB4A6E
:10121000921C117011460870704710B501460022EB
:10122000002300204A11012A02D1E44C236808E07F
:10123000022A03D1E14C7034236802E0DF4C74349D
:10124000236801F01F02012494401C4201D00120B8
:1012500000E0002010BD38B50020009000240025DB
:1012600000BF3120FFF7D9FF05460098401C0090D1
:101270000098B0F5A06F01D0002DF2D03120FFF71B
:10128000CCFF08B1012400E00024204638BD01460F
:101290000020CA4A106820F0F80040EAC10010603F
:1012A0007047C949086070470021C44A7032117004
:1012B0001170012802D004280AD104E00121BF4A9C
:1012C0007032117005E00521BC4A7032117000E0E7
:1012D00000BF00BF7047BD490860704770B5049CEF
:1012E00041EA82150126C6EB530645EA0645054349
:1012F00045EA0465B14E361D356070BDB2490866D9
:101300007047820142EA0172AC4B84331A60704725
:10131000AD4988667047AC49C864704702460020F2
:10132000A64B0833186820F0EC6042EA010318432A
:10133000A24B083318607047024600209F4B0833C9
:10134000186820F0784042EA010318439B4B0833A9
:101350001860704701460020984A0832106820F053
:10136000030008431060704794480830006800F09C
:101370000C00704701460020904A0832106820F0A7
:10138000F000084310607047014600208B4A083285
:10139000106820F4E05008431060704701460020B8
:1013A000864A0832106820F4604040EAC1001060AC
:1013B0007047F0B5002100220024022500260223F8
:1013C0007E4F08373F6807F00C0121B1042905D092
:1013D000082937D105E07E4F076036E07D4F076072
:1013E00033E0764F3F1D3F68C7F38056734F3F1D74
:1013F0003F6807F03F036EB1764FB7FBF3F7DFF8B6
:10140000BCC10CF1040CDCF800C0CCF3881C07FB59
:101410000CF40CE06E4FB7FBF3F7DFF8A0C10CF152
:10142000040CDCF800C0CCF3881C07FB0CF4634F01
:101430003F1D3F68C7F301477F1C7D00B4FBF5F7F4
:10144000076002E0624F076000BF00BF5B4F0837D4
:101450003F6807F0F00109095F4F7A5C0768D740E1
:101460004760564F08373F6807F4E051890A5A4FE2
:101470007A5C4768D7408760504F08373F6807F469
:101480006041490B544F7A5C4768D740C760F0BD54
:10149000002100F44072B2F5407F0AD1474A083279
:1014A000116821F4F8114D4A02401143434A0832B1
:1014B0001160424A70321268C0F30B031A433F4B6B
:1014C00070331A60704741494439086070473F499A
:1014D00040390860704742490860704739B1374A5F
:1014E000303212680243354B30331A6006E0334A1B
:1014F000303212688243314B30331A60704739B151
:101500002E4A3432126802432C4B34331A6006E000
:101510002A4A343212688243284B34331A607047A7
:1015200039B1264A383212680243244B38331A60E4
:1015300006E0224A383212688243204B38331A6060
:10154000704739B11D4A4032126802431B4B403389
:101550001A6006E0194A403212688243174B403342
:101560001A60704739B1154A443212680243134B6E
:1015700044331A6006E0114A4432126882430F4B2A
:1015800044331A60704739B10C4A10321268024372
:101590000A4B10331A6006E0084A10321268824380
:1015A000064B10331A607047E1B1044A14321268D6
:1015B0000243024B14331A6019E000000038024065
:1015C000FFFFF6FE1030002400004742800E474225
:1015D0000024F40040787D0120000020FFFCFF0F74
:1015E0005C0147425B4A126882435A4B1A6070475B
:1015F00039B1584A121D12680243564B1B1D1A601E
:1016000006E0544A121D12688243524B1B1D1A6099
:10161000704739B14F4A0C32126802434D4B0C33BC
:101620001A6006E04B4A0C3212688243494B0C3375
:101630001A60704739B1474A103212680243454B6D
:1016400010331A6006E0434A103212688243414B5D
:1016500010331A60704739B13E4A3C321268024377
:101660003C4B3C331A6006E03A4A3C3212688243F3
:10167000384B3C331A60704739B1364A40321268F1
:101680000243344B40331A6006E0324A403212685B
:101690008243304B40331A60704739B12D4A44328F
:1016A000126802432B4B44331A6006E0294A443245
:1016B00012688243274B44331A60704739B1254A78
:1016C0004C3212680243234B4C331A6006E0214A25
:1016D0004C32126882431F4B4C331A60704739B149
:1016E0001C4A5032126802431A4B50331A6006E00B
:1016F000184A503212688243164B50331A607047B2
:1017000039B1144AD21F12780243124BDB1F1A70F0
:1017100006E0104AD21F127882430E4BDB1F1A706C
:1017200070470C486030006840F0807009496031B3
:101730000860704701460020064A083A12680A42CB
:1017400001D0012000E0002070470249891F087085
:10175000704700001438024010B50446F648844231
:1017600008D101218014FFF765FF0021A014FFF7C5
:1017700061FF16E0F148844208D101210014FFF70F
:1017800048FF00212014FFF744FF0AE0EC488442A0
:1017900007D10121C013FFF73CFF0021E013FFF741
:1017A00038FF10BD10B50022028802F441520B88A8
:1017B0004C8823438C882343CC8823430C892343C0
:1017C0004C8923438C892343CC8923431A430280C9
:1017D000838B4FF2FF74234083830B8A038210BDF7
:1017E0002DE9F04F002502230024012700220026C6
:1017F000944690469146B0F81CA04FF2400B0AEA7E
:101800000B0AA0F81CA04FF0020AA0F820A0858BBC
:10181000D1F808A0BAF1020F01D100BF6AE0B1F817
:1018200004A0BAF1000F01D1012700E00227DFF880
:1018300014A3DAF800A01AF4000F09D0DFF804A30B
:10184000DAF800A02AF4000ADFF8F8B2CBF800A01A
:10185000DFF8F0A20AF17C0ADAF800A0CAF38818CF
:10186000DFF8E0A20AF17C0ADAF800A0CAF30279F4
:10187000DFF8D0A2AAF1040ADAF800A00AF03F0CBF
:10188000DFF8C4A2BAFBFCFA0AFB08FABAFBF9F6C5
:10189000B1F806A0BAF5007F0ED14FEA162A0AEB7E
:1018A0008A0A4FEA4A0AD1F808B0BAFBFBFA0AF1F1
:1018B000050A1FFA8AF20FE04FEA471AB6FBFAFA56
:1018C0000AEB8A0A4FEA4A0AD1F808B0BAFBFBFAD7
:1018D0000AF1050A1FFA8AF24FF00A0AB2FBFAF27D
:1018E00002F00104A2EB040ACAF34F034FF6FF7A99
:1018F0000AEA0424022B01DBFF2B01DD0223002472
:10190000B1F806A04AEA040A4AEA030AA0F820A0AD
:10191000B1F804A0B1F80CB04AEA0B0AB1F802B071
:101920004AEA0B0AB1F800B04AEA0B0A4AF4006A24
:101930004AEA05058583BDE8F08F002101804180DA
:101940008180C180018141818181C1810721018222
:1019500070470021018041808180C1800221816027
:1019600000218181704721B1028842F0400202804B
:1019700004E002884FF6BF731A400280704721B11D
:10198000828B42F48062828304E0828B4FF6FF33C5
:101990001A408283704702884FF2FF731A40028018
:1019A00002880A4302807047B1F5804F04D1028853
:1019B00042F48042028004E002884BF6FF731A4032
:1019C00002807047A1F57E42FF3A04D0028842F4BB
:1019D0008072028004E002884FF6FF631A400280A2
:1019E000704721B1828842F00402828004E082883C
:1019F0004FF6FB731A408280704721B1828842F013
:101A00001002828004E082884FF6EF731A408280D1
:101A1000704730B500220023848B4FF240052C40E4
:101A2000848302240484828B0C88B4F5007F01D067
:101A30000C8814B94FF4807308E00C88B4F5407F2B
:101A400003D00C88B4F5807F00D100238C888D8969
:101A50002C434D882C431C4344F40064224382836E
:101A600030BD0146888970478181704721B1028865
:101A700042F40052028004E002884DF6FF731A40DF
:101A800002807047018841F480510180704702460E
:101A90000020012901D0108B00E0908A7047014698
:101AA000088A70471AB183880B43838002E08388D9
:101AB0008B438380704730B5002400230C1101252F
:101AC000A540ABB21AB185881D43858002E08588A8
:101AD0009D43858030BD0246002013890B4201D012
:101AE000012000E000207047CA4302817047F0B532
:101AF0000246002000240023002501F00F070126E4
:101B0000BE40B4B20B1101269E40B3B2968806EADD
:101B100003051689264202D00DB1012000E0002005
:101B2000F0BD10B5002201F00F040123A3409AB2CA
:101B3000D343038110BD0000003001400038004055
:101B4000003C00400838024040787D0110B501217A
:101B50008803FFF76FFD00214FF48040FFF76AFD17
:101B600010BD1A490860704730B500228B071C0F62
:101B70000F2303FA04F2154B08338C1053F824306A
:101B80009343124C08348D1044F8253023468C10B2
:101B900053F824308C07240F00FA04F423430B4C31
:101BA00008348D1044F8253030BD0949086070476D
:101BB000084908607047002004492031096811F481
:101BC000807F01D0012000E00020704700380140F4
:101BD000DC0027420004274210B50446FE48844238
:101BE00008D101210846FFF725FD00210120FFF75C
:101BF00021FD9DE0B4F1804F08D101210846FFF797
:101C000008FD00210120FFF704FD91E0F348844224
:101C100008D101210220FFF7FCFC00210220FFF780
:101C2000F8FC85E0EE48844208D101210420FFF74A
:101C3000F0FC00210420FFF7ECFC79E0E948844245
:101C400008D101210820FFF7E4FC00210820FFF75C
:101C5000E0FC6DE0E448844208D101211020FFF748
:101C6000D8FC00211020FFF7D4FC61E0DF4884425B
:101C700008D101212020FFF7CCFC00212020FFF714
:101C8000C8FC55E0DA48844208D101210220FFF760
:101C9000D1FC00210220FFF7CDFC49E0D548844269
:101CA00009D101210804FFF7C5FC00214FF4803061
:101CB000FFF7C0FC3CE0D048844209D10121480430
:101CC000FFF7B8FC00214FF40030FFF7B3FC2FE022
:101CD000CA48844209D101218804FFF7ABFC0021E6
:101CE0004FF48020FFF7A6FC22E0C548844208D1CB
:101CF00001214020FFF78DFC00214020FFF789FCE7
:101D000016E0C048844208D101218020FFF781FC01
:101D100000218020FFF77DFC0AE0BB48844207D108
:101D200001218015FFF775FC0021A015FFF771FC5C
:101D300010BD00220288A84B98420ED0AC4B9842AE
:101D40000BD0B0F1804F08D0A44B984205D0A44BE3
:101D5000984202D0A34B984204D14FF68F731A4099
:101D60004B881A43A04B984207D0A04B984204D00E
:101D70004FF6FF431A400B891A4302804B68C36237
:101D80000B880385944B984202D0994B984201D11D
:101D90008B7A03860123838270474FF0FF314160C5
:101DA000002101800181418081727047018582821A
:101DB00070470A46002101884FF68F73194011437E
:101DC0000180704741627047C16270470146486AAE
:101DD00070470146088D704721B1028842F0020227
:101DE000028004E002884FF6FD731A4002807047BB
:101DF00021B1028842F00402028004E002884FF61A
:101E0000FB731A400280704721B1028842F08002C1
:101E1000028004E002884FF67F731A400280704708
:101E200002884FF6F7731A40028002880A43028044
:101E3000704702884FF6FF431A40028002880A4327
:101E40000280704721B1028842F00102028004E062
:101E500002884FF6FE731A400280704770B5002466
:101E600000220023058C4FF6FE7635400584028C57
:101E70008388048B4FF68F752C40B51E2C400D883F
:101E80002C43751E2A408D892A434D882A43524D82
:101E9000A84202D0564DA84213D14FF6F7752A40FA
:101EA000CD892A434FF6FB752A408D882A434FF689
:101EB000FF652B404FF6FF552B400D8A2B434D8A73
:101EC0002B43838004838D684563028470BD70B5A5
:101ED000002400220023058C4FF6EF763540058460
:101EE000028C8388048B48F6FF752C404FF6FF4523
:101EF0002C400D884FF6FF7606EA05252C434FF659
:101F0000DF752A408D8906EA05152A434D8806EAC1
:101F100005152A43304DA84202D0354DA8421DD1A7
:101F20004FF67F752A40CD894FF6FF7606EA0515F4
:101F30002A434FF6BF752A408D8806EA05152A43C5
:101F40004FF6FF352B404FF2FF752B400D8A06EA06
:101F500085052B434D8A06EA85052B438380048340
:101F60008D688563028470BD70B500240022002353
:101F7000058C4FF6FF6635400584028C8388848B80
:101F80004FF68F752C404FF6FC752C400D882C4376
:101F90004FF6FF552A408D894FF6FF7606EA052554
:101FA0002A434D8806EA05252A430B4DA84202D054
:101FB0000F4DA84238D14FF2FF752A40CD894FF618
:101FC000FF7606EA05252A434FF6FF352A408D881D
:101FD00006EA05252A4319E00000014000040040FC
:101FE00000080040000C00400010004000140040B9
:101FF000000401400040014000440140004801400D
:1020000000180040001C0040002000404EF6FF7504
:102010002B404DF6FF752B400D8A06EA05152B4324
:102020004D8A06EA05152B43838084838D68C5633A
:10203000028470BD70B5002200230024058C4EF68A
:10204000FF7635400584038C8488828B48F6FF75C3
:102050002A404FF6FF452A400D884FF6FF7606EAE4
:1020600005252A434DF6FF752B408D8906EA053577
:102070002B434D8806EA05352B43FE4DA84202D07E
:10208000FD4DA84208D14BF6FF752C400D8A4FF646
:10209000FF7606EA85152C43848082838D6805646B
:1020A000038470BD00210180418081808160818135
:1020B000C18101824182704770B50346002000242F
:1020C0001846183001258D40ACB21D8CA5431D84E7
:1020D00009B108290AD100EB610005684FF68F7637
:1020E000354005600568154305600FE00D1FC5F319
:1020F0004E052844056848F6FF76354005600568BA
:102100004FF6FF7606EA02263543056070BD41634F
:10211000704781637047C1637047016470470A4626
:102120000021018B4FF68F731940114301837047D3
:102130000A460021018B48F6FF7319404FF6FF73E2
:1021400003EA02231943018370470A460021818B69
:102150004FF68F7319401143818370470A4600215F
:10216000818B48F6FF7319404FF6FF7303EA022391
:102170001943818370470A460021018B4FF6F7739C
:1021800019401143018370470A460021018B4FF229
:10219000FF7319404FF6FF7303EA022319430183CB
:1021A00070470A460021818B4FF6F773194011439F
:1021B000818370470A460021818B4FF2FF731940DB
:1021C0004FF6FF7303EA02231943818370470A46DF
:1021D0000021018B4FF6FB731940114301837047B7
:1021E0000A460021018B4FF6FF3319404FF6FF736B
:1021F00003EA02231943018370470A460021818BB9
:102200004FF6FB7319401143818370470A46002142
:10221000818B4FF6FF3319404FF6FF7303EA022319
:102220001943818370470A460021018B4FF67F7363
:1022300019401143018370470A460021018BC1F305
:102240000E014FF6FF7303EA02231943018370471F
:102250000A460021818B4FF67F7319401143818319
:1022600070470A460021818BC1F30E014FF6FF73C0
:1022700003EA02231943818370470A460021018C37
:102280004FF6FD7319401143018470470A4600213F
:10229000018C4FF6F77319401143018470470A46C9
:1022A0000021018C4FF6DF7319404FF6FF7303EAEC
:1022B00002131943018470470A460021018C4FF62E
:1022C0007F7319404FF6FF7303EA02131943018429
:1022D00070470A460021018C4FF6FF5319404FF614
:1022E000FF7303EA02231943018470470A46002161
:1022F000018C4FF2FF7319404FF6FF7303EA02237C
:102300001943018470470A460021018C4DF6FF7382
:1023100019404FF6FF7303EA0233194301847047F3
:1023200030B5002301248C40A3B2048C9C43048468
:10233000048C02FA01F5ADB22C43048430BD30B5F3
:10234000002304248C40A3B2048C9C430484048C9A
:1023500002FA01F5ADB22C43048430BD828B4FF2FA
:10236000FF331A408283828B4FF6FF7303EA012307
:102370001A4382837047F0B50C46154600210022AF
:102380000026078C4EF6FF7C07EA0C070784818B3A
:10239000028C4FF6FF7707EA043640F6FF473940D4
:1023A0004FF6FF7707EA052739434FF6FF7707EA2D
:1023B0000337394345F6FF773A4046F480573A43AE
:1023C00081830284F0BD828B4FF6F3731A408283BF
:1023D000828B0A4382837047F0B50C461546002174
:1023E00000220026078C4FF6FF6C07EA0C070784D3
:1023F000818B028C4FF6FF7707EA04264FF60C77A5
:1024000039404FF6FF7707EA03172F4339434FF25E
:10241000FF573A4046F480773A4381830284F0BD07
:10242000028B4FF2FF331A400283028B4FF6FF7389
:1024300003EA01231A4302837047F0B50C461546A0
:10244000002100220026078C4FF6EF7C07EA0C07DC
:102450000784018B028C4FF6FF7707EA041640F6DB
:10246000FF4739404FF6FF7707EA033739434FF606
:10247000FF7703E0000001400004014007EA052760
:1024800039434FF65F773A4046F010073A430183ED
:102490000284F0BD028B4FF6F3731A400283028B65
:1024A0000A4302837047F0B50C461546002100220E
:1024B000068C4FF6FE773E400684018B028C4FF669
:1024C0000C7631407E1C06EA03162E4331434FF64C
:1024D000F576324044F00106324301830284F0BDB8
:1024E00070B505460C46208850B92389A2886188BA
:1024F0002846FFF7D8FFE1882846FFF7CBFF25E005
:10250000208804280AD12389A28861882846FFF7F9
:1025100094FFE1882846FFF783FF17E0208808280A
:102520000AD12389A28861882846FFF755FFE188F0
:102530002846FFF748FF09E02389A28861882846DA
:10254000FFF719FFE1882846FFF708FF70BD00215B
:1025500001804180012181800021C180018170477B
:102560002DE9F04105460C4600260127608808B990
:10257000022600E00026A088012801D1022700E001
:1025800001272088A0B92389A28861882846FFF7FF
:102590008AFFE1882846FFF77DFF23893A463146C6
:1025A0002846FFF74AFFE1882846FFF739FF13E086
:1025B0002389A28861882846FFF73FFFE1882846E3
:1025C000FFF72EFF23893A4631462846FFF76BFF77
:1025D000E1882846FFF75EFFBDE8F0810146486BC1
:1025E00070470146886B70470146C86B70470146CB
:1025F000086C70470A884B881A438B881A43CB882B
:102600001A430B891A434B891A438B891A43A0F842
:10261000442070470021018041808180C180018178
:1026200041818181704731B1B0F8442042F40042C9
:10263000A0F8442005E0B0F84420C2F30E02A0F850
:102640004420704721B1828842F00402828004E075
:1026500082884FF6FB731A408280704721B18288CE
:1026600042F00102828004E082884FF6FE731A4035
:10267000828070471AB183890B43838102E083898A
:102680008B43838170478182704702460020138A02
:102690000B4201D0012000E000207047CA430282B3
:1026A000704730B50246002000230024158A05EA51
:1026B0000103958905EA010413B10CB1012000E082
:1026C000002030BDCA430282704741EA0203A0F8ED
:1026D000483070471AB183890B43838102E08389B4
:1026E0008B438381704721B1828842F00802828047
:1026F00004E082884FF6F7731A40828070470189A0
:102700004FF6F8721140018170470A460021018995
:102710004FF68F73194011430181704730B504465D
:102720000D4629462046FFF7F0FF208940F00700BC
:10273000208130BD2DE9F04104460D4616461F4666
:10274000602D06D13B46012231462046FFF775FE3B
:1027500005E03B46012231462046FFF7A4FE29460C
:102760002046FFF7D2FF208940F007002081BDE816
:10277000F08130B50C4600210189C9B24FF6FF75D2
:1027800005EA0325154325432943018130BD2DE981
:10279000F04105460E4617469846002443463A4601
:1027A00031462846FFF7E5FF2C894FF6F8700440C4
:1027B00044F007044FF68F70044044F070042C81FD
:1027C000BDE8F081F0B504460D4616461F463B466F
:1027D000324629462046FFF7CCFF208940F480404E
:1027E0002081F0BD82884FF68F731A4082808288E4
:1027F0000A438280704702894FF6F8731A400281BB
:1028000002890A430281704702894FF67F731A409A
:10281000028102890A4302817047F0B50C461546D1
:102820001E460021002200230189028B038C4FF6F3
:10283000F877394021434FF6FC473A4040F2011700
:102840003A434FF6DD773B404FF6FF7707EA06172E
:102850002F433B43018102830384F0BD21B1828871
:1028600042F08002828004E082884FF67F731A4033
:1028700082807047A0F850107047000001B50B49E6
:102880000098086004E009480068401E0749086095
:10289000064800680028F6D108BD0448006820B149
:1028A00002480068401E014908607047300000205F
:1028B000A1F12002204B03EBC202136803605268AF
:1028C00042607047A1F1200202EB42021B4B03EB76
:1028D00082021368036053684360926882607047A5
:1028E00070B505460C46A4F1200000EB4000144AE8
:1028F00002EBC0011822284602F0BEFE70BD70B582
:1029000005460C46A4F120000E4A02EB00111022ED
:10291000284602F0B1FE70BD70B505460C46A4F124
:10292000200000EB4000084A02EB0011302228464C
:1029300002F0A2FE70BD0000028A00088E85000829
:10294000A67C0008B6760008E66400084FF0C04296
:102950001080FE4A1180704710B50446642C01DDDA
:10296000642402E0002C00DA0024F9480088401EAC
:1029700060436421B0FBF1F0F6490880F448008818
:10298000F5494860F3480088F4498860F448FFF747
:10299000EBFA10BD1CB501210846FEF79FFD4FF470
:1029A0008060009002208DF8040003208DF805005F
:1029B00000208DF8060001208DF807006946E948DF
:1029C000FEF746FB01220A21E648FEF7CCFBE6486B
:1029D000006844F2A241B0FBF1F0401EDC490880DF
:1029E00008460088401E00EB401000EB40006421C8
:1029F000B0FBF1F0D749088001210846FEF7B2FD8F
:102A00000020D54908804880D148008848600020CF
:102A100008818872D248FFF78CF97020CF4908806E
:102A20000120488004208880022088810020C881FD
:102A30004FF48070088200204882C6480088886071
:102A4000C748FFF791FA0121C548FFF7FBF90121BB
:102A5000C348FFF7E8FD1CBD00B597B0002001900A
:102A60000290022003900020049001200590002095
:102A700006900790089009900A9010200B90002073
:102A80000C900E900F9010904FF4805011900020F9
:102A900012900D9013904FF40020149001A81590FF
:102AA00008A8FDF775FF0020019002900420039014
:102AB000002004900120059000200690079001A8B6
:102AC000169008A8FDF764FF01210020FEF709F821
:102AD00017B000BD1CB501217820FEF7FFFC0121D5
:102AE0000846FEF71DFD0C220021A048FEF73BFB27
:102AF0000C2201219D48FEF736FB0C2204219B4845
:102B0000FEF731FB0C2205219848FEF72CFB0C2226
:102B100007219648FEF727FB0C2208219348FEF771
:102B200022FB0C2209219148FEF71DFB0C220A21F1
:102B30008E48FEF718FB0C220B218C48FEF713FB86
:102B40000C220E218948FEF70EFB0C220F2187482C
:102B5000FEF709FB0C2207218548FEF704FB0C2237
:102B600008218348FEF7FFFA0C2209218048FEF76E
:102B7000FAFA0C220A217E48FEF7F5FA0C220B2104
:102B80007B48FEF7F0FA0C2211467948FEF7EBFA83
:102B90000C220D217648FEF7E6FA0C220E2174482D
:102BA000FEF7E1FA0C220F217148FEF7DCFA4CF631
:102BB000B370009002208DF8040003208DF805000A
:102BC00000208DF806008DF8070069466748FEF77B
:102BD0003FFA4FF68070009002208DF80400032029
:102BE0008DF8050000208DF806008DF80700694675
:102BF0005F48FEF72DFA1CBD10B5FFF76BFF40F6DE
:102C0000B830FFF73BFEFFF727FF40F6B830FFF77D
:102C100035FEFFF7BFFE6420FFF79EFE212107204F
:102C2000FFF794FE3220FFF729FE01210020FFF775
:102C30008DFE3220FFF722FE23210720FFF786FEBC
:102C40003220FFF71BFE00211020FFF77FFE5A20E5
:102C5000FFF714FE33210720FFF778FE3220FFF73D
:102C60000DFE46F630011120FFF770FE3220FFF70F
:102C700005FE4FF4C0610220FFF768FE3220FFF727
:102C8000FDFD46F6EB411220FFF760FE3220FFF714
:102C9000F5FD4AF6A4010320FFF758FE3220FFF7A6
:102CA000EDFD00210C20FFF751FE3220FFF7E6FD7D
:102CB00040F60C010D20FFF749FE3220FFF7DEFD44
:102CC0004FF42C510E20FFF741FE3220FFF7D6FDC6
:102CD000B0211E20FFF73AFE3220FFF7CFFD42F66B
:102CE0003F310120FFF732FE3220FFF7C7FD002100
:102CF0000520FFF72BFE3220FFF7C0FD0021062044
:102D0000FFF724FE3220FFF7B9FD4EF61C711620A6
:102D1000FFF71CFE3220FFF7B1FD40F20311172030
:102D2000FFF714FE3220FFF7A9FD00210B20FFF76B
:102D30000DFE3220FFF7A2FD00210F20FFF706FE57
:102D40003220FFF79BFD0021412013E000000260CC
:102D50003A0000203C000020540E0020600E0020AD
:102D600000000140000002400C000020000C024066
:102D700000100240FFF7EAFD3220FFF77FFD00213F
:102D80004220FFF7E3FD3220FFF778FD00214820C5
:102D9000FFF7DCFD3220FFF771FD40F23F114920C3
:102DA000FFF7D4FD3220FFF769FD00214A20FFF72D
:102DB000CDFD3220FFF762FD00214B20FFF7C6FD5D
:102DC0003220FFF75BFD4FF46F414420FFF7BEFD5B
:102DD0003220FFF753FD00214520FFF7B7FD3220D9
:102DE000FFF74CFD40F23F114620FFF7AFFD3220C8
:102DF000FFF744FD40F207713020FFF7A7FD3220B6
:102E0000FFF73CFD4FF401713120FFF79FFD3220A9
:102E1000FFF734FD4FF401713220FFF797FD3220A8
:102E2000FFF72CFD40F202513320FFF78FFD3220D7
:102E3000FFF724FD40F207513420FFF787FD3220D1
:102E4000FFF71CFD4FF401713520FFF77FFD3220A5
:102E5000FFF714FD4FF401713620FFF777FD3220A4
:102E6000FFF70CFD40F202513720FFF76FFD3220D3
:102E7000FFF704FD40F202313A20FFF767FD3220F0
:102E8000FFF7FCFC41F2BE212F20FFF75FFD32204F
:102E9000FFF7F4FC40F202313B20FFF757FD3220F0
:102EA000FFF7ECFC00212320FFF750FD3220FFF755
:102EB000E5FC00212420FFF749FD3220FFF7DEFC6E
:102EC0004FF400412520FFF741FD3220FFF7D6FCEB
:102ED00000214F20FFF73AFD3220FFF7CFFC002101
:102EE0004E20FFF733FD3220FFF7C8FC10BD222033
:102EF0004FF0C04108807047FE490880704700B518
:102F000040F273110720FFF721FD00BD00B500213D
:102F10000720FFF71BFD00BD03B5BDF80000F64913
:102F20000880BDF80400F54908800CBDF24A1288FB
:102F30000280F24A12880A80704701B5BDF800008D
:102F4000ED49088008BD01B5BDF80000EB490880D7
:102F500008BD01B5BDF80000E949088008BD10B5FD
:102F600003460C4619464E20FFF7F0FC21464F2041
:102F7000FFF7ECFC10BD30B50446002500210846E3
:102F8000FFF7EDFFFFF7B3FF00BF02E0D948048071
:102F90006D1CB5F5963FF9D330BD30B504460D46EE
:102FA000EF2C02DCB5F5A07F00DB30BDA9B2A0B2EA
:102FB000FFF7D5FFFFF79BFFCF480088FFF79CFF87
:102FC00000BFF2E770B504460D461646EF2C02DC52
:102FD000B5F5A07F00DB70BDA9B2A0B2FFF7BFFFBF
:102FE000FFF785FFB0B2FFF787FF00BFF3E72DE9DA
:102FF000F0438DB006460F46904600240025C04899
:10300000008808282FD14FF0000941460BA8FFF790
:103010004FFC00BF24E00BA810F8049000251BE033
:10302000C5F1070049FA00F010F0010F09D03A1974
:1030300011B2721910B2B04A128812B2FFF7C2FF71
:1030400008E03A1911B2721910B2AC4A128812B2E1
:10305000FFF7B8FF681CC5B2082DE1DB601CC4B2E5
:10306000082CD8DB00BFA64800880C282FD14FF0D1
:10307000000941460AA8FFF725FC002424E00AA81D
:1030800010F8049000251BE0C5F1070049FA00F094
:1030900010F0010F09D03A1911B2721910B2964A04
:1030A000128812B2FFF78EFF08E03A1911B27219B6
:1030B00010B2924A128812B2FFF784FF681CC5B2A0
:1030C000082DE1DB601CC4B20C2CD8DB00BF8C489F
:1030D000008810282FD14FF00009414609A8FFF7BA
:1030E0000EFC002424E009A810F8049000251BE041
:1030F000C5F1070049FA00F010F0010F09D03A19A4
:1031000011B2721910B27C4A128812B2FFF75AFF3C
:1031100008E03A1911B2721910B2784A128812B244
:10312000FFF750FF681CC5B2082DE1DB601CC4B27C
:10313000102CD8DB00BF724800880E282FD14FF02A
:103140000009414607A8FFF7CBFB002424E007A8AD
:1031500030F814001FFA80F9002519E049FA05F04B
:1031600010F0010F09D03A1911B2721910B2624A67
:10317000128812B2FFF726FF08E03A1911B272194D
:1031800010B25E4A128812B2FFF71CFF681CC5B26B
:103190000C2DE3DB601CC4B20C2CD8DB00BF5848FC
:1031A000008818282FD14FF00009414601A8FFF7E9
:1031B000B3FB002424E001A830F814001FFA80F9C2
:1031C000002519E049FA05F010F0010F09D03A196D
:1031D00011B2721910B2484A128812B2FFF7F2FE09
:1031E00008E03A1911B2721910B2444A128812B2A8
:1031F000FFF7E8FE681CC5B2102DE3DB601CC4B20B
:10320000182CD8DB00BF0DB0BDE8F0832DE9F041EC
:1032100004460D46164600BF16F8017B3A4629B211
:1032200020B2FFF7E4FEE82C11DA04F1080084B2C2
:1032300033480088182803D104F1080084B210E054
:103240002F4800880E280CD1201D84B209E0B5F566
:10325000987F04DA002405F1100085B201E0002413
:10326000002530780028D7D1BDE8F0812DE9F04164
:103270000646884615461F46002441463046FFF75D
:103280006EFE5FB9FFF733FE00BF04E01A48008806
:10329000FFF732FE641CAC42F8D310E000240CE0CF
:1032A000FFF725FE14480088FFF726FE701C86B243
:1032B00041463046FFF753FE641CAC42F0D3BDE8F4
:1032C000F0812DE9F04304460D46904699460026CC
:1032D00000270CE0A11908B229B2FFF75EFE05EB4A
:1032E000090211B2A21910B2FFF757FE761C08F1BD
:1032F000010007E0000002603400002036000020DA
:10330000380000208642E5DB0CE0E81901B220B26B
:10331000FFF743FEEA1911B204EB080210B2FFF7FF
:103320003CFE7F1C09F101008742EEDBBDE8F08323
:103330002DE9F04104460D4616460027B8460BE03D
:10334000E11908B229B2FFF728FEAA1911B2E21951
:1033500010B2FFF722FE7F1C701C8742F0DB0EE0EC
:1033600005EB080001B220B2FFF717FE05EB0802DB
:1033700011B2A21910B2FFF710FE08F10108701C7B
:103380008045EDDBBDE8F0812DE9F04306460F46B0
:1033900090460320A0EB48000FFA80F90024454630
:1033A00044E07A1911B2321910B2FFF7F6FD7A1B18
:1033B00011B2321910B2FFF7F0FD7A1911B2321BB7
:1033C00010B2FFF7EAFD7A1B11B2321B10B2FFF701
:1033D000E4FD3A1911B2721910B2FFF7DEFD3A1B83
:1033E00011B2721910B2FFF7D8FD3A1911B2721B5F
:1033F00010B2FFF7D2FD3A1B11B2721B10B2FFF7E9
:10340000CCFDB9F1000F06DA062000EB8400484439
:103410000FFA80F908E0601B0A2101EB80004844A4
:103420000FFA80F9681E85B2601C84B2AC42B8DD28
:10343000BDE8F0832DE9F04F89B005460E46914670
:103440009A460027B84600200890079006900590FD
:103450000490039000248346029001900090A9EB11
:103460000500002802DDA9EB050001E0A5EB09003D
:1034700007B2AAEB0600002802DDAAEB060001E075
:10348000A6EB0A000FFA80F828B2089030B2079035
:10349000A94503DB01200690059003E04FF0FF30C3
:1034A00006900590B24503DB01200490039003E0F1
:1034B0004FF0FF300490039047450DDB002006904D
:1034C00003903C46384607EBD07149100FFA81FB58
:1034D000CDF8088001970CE0002005900490444648
:1034E000404608EBD07149100FFA81FB0297CDF8E6
:1034F00004800020009025E0DDE90710FFF74DFD76
:10350000029858440FFA80FBA3450DDBABEB040097
:103510000FFA80FB06990898084400B208900499B5
:103520000798084400B2079005990898084400B22B
:10353000089003990798084400B207900098401C2F
:1035400000B20090DDE900018842D5DD09B0BDE898
:10355000F08F2DE9F04306460F4690460320A0EB7E
:1035600048000FFA80F9002445465CE0A7EB050C03
:103570001FFA8CF306EB040C1FFA8CF207EB050C18
:103580001FFA8CF106EB040C1FFA8CF0FFF752FFC8
:10359000A7EB050C1FFA8CF3A6EB040C1FFA8CF2B8
:1035A00007EB050C1FFA8CF1A6EB040C1FFA8CF04C
:1035B000FFF740FFA7EB040C1FFA8CF306EB050C9A
:1035C0001FFA8CF207EB040C1FFA8CF106EB050CCA
:1035D0001FFA8CF0FFF72EFFA7EB040C1FFA8CF3F9
:1035E000A6EB050C1FFA8CF207EB040C1FFA8CF10A
:1035F000A6EB050C1FFA8CF0FFF71CFFB9F1000FCA
:1036000006DA062000EB840048440FFA80F908E04F
:10361000601B0A2101EB800048440FFA80F9681E04
:1036200085B2601C84B2AC42A0DDBDE8F0832DE918
:10363000F04306460F4690469946002400250BE0CD
:1036400006E07A1911B2321910B2FFF7A6FC6D1C10
:103650004D45F6DB0025641C4445F1DBBDE8F083F5
:103660002DE9F041074688461446002500260CE067
:1036700007E008EB060211B27A1910B2FFF78DFCD1
:10368000761CA642F5DB00266D1CA542F0DBBDE8EA
:10369000F081F0B504460D4600260027022D00DA21
:1036A000F0BD10E0B4F90060B4F90270241DB4F864
:1036B00002C01FFA8CF3B4F800C01FFA8CF2B9B242
:1036C000B0B2FFF7B7FE681E80B20500EAD100BFB6
:1036D000E6E72DE9F04304460F4690460025002614
:1036E000A146022F01DABDE8F083B4F90050B4F925
:1036F000026014E0241DB4F802C0B4441FFA8CF335
:10370000B4F800C0AC441FFA8CF2B1B2A8B2FFF713
:1037100091FE2088284405B26088304406B2781EA5
:1037200080B20700E6D1B8F1000F0BD0B3B2AAB255
:10373000B9F802C01FFA8CF1B9F800C01FFA8CF07A
:10374000FFF778FE00BFCEE770B504460D46294668
:103750002046FFF79EFF04EB850636F8026CB3B2F5
:1037600004EB850636F8046CB2B26688B1B22688DE
:10377000B0B2FFF75FFE70BD70B504460D46002283
:1037800029462046FFF7A5FF70BD70B504460D46DB
:10379000012229462046FFF79CFF70BD2DE9F04F1E
:1037A0002DED048BE9B005468846002068908146DF
:1037B0000026002400270390824683460290019051
:1037C000288880B283468246688880B20190029041
:1037D000012417E005EB840040881FFA80F9D145E9
:1037E00000DACA46D94500DDCB4635F8240086B25A
:1037F0000298864200DA02960198864200DD019620
:10380000601C84B24445E5DBB9480088FFF795FBAE
:10381000029E05E100206890A8F1010087B2002413
:103820008AE0304602F094FB41EC100BB0EE408A87
:10383000F0EE608A35F9240002F073FB41EC100BC6
:10384000B0EE409AF0EE609A53EC182B51EC190B45
:1038500002F092FB19D2304602F07AFB41EC100BD9
:10386000B0EE408AF0EE608A35F9270002F059FB8D
:1038700041EC100BB0EE409AF0EE609A53EC182B2E
:1038800051EC190B02F0B2FC33D9304602F060FB68
:1038900041EC100BB0EE408AF0EE608A35F927005B
:1038A00002F03FFB41EC100BB0EE409AF0EE609A54
:1038B00053EC182B51EC190B02F05EFB39D2304659
:1038C00002F046FB41EC100BB0EE408AF0EE608A4D
:1038D00035F9240002F025FB41EC100BB0EE409AC4
:1038E000F0EE609A53EC182B51EC190B02F07EFCB1
:1038F0001FD805EB8700B0F9020005EB8401B1F990
:103900000210401A35F92410711A484335F927106E
:1039100035F92420891A90FBF1F005EB84014988E0
:10392000084482B26898411C89B2689104A921F8C0
:1039300010202746601C84B24445FFF672AF002475
:103940001CE004A830F8141004AA601C32F810001F
:10395000814211DD04A830F81400039004A9601C12
:1039600031F8100021F81400611C039822F81100AE
:1039700024B1601E84B201E0601C84B26898401ECD
:10398000A042DEDC002445E004A830F814005845CD
:1039900000DB42E004A9601C31F81000504537DD1F
:1039A00004A830F81400504502DA04A820F814A046
:1039B00004A9601C31F81000584502DD601C21F894
:1039C00010B04B480088FFF7B8FA04AB601C33F81E
:1039D000100033F81430C01A82B204AB601C33F804
:1039E000101000233046FFF741FC42480088FFF7E3
:1039F000A4FA04AA601C32F8100001B230B2FFF73A
:103A0000CCFA04A830F8140001B230B2FFF7C5FABE
:103A1000A01C84B268988442B6DB00BF701C86B2DA
:103A200001988642FFF6F6AE32480088FFF785FA25
:103A300069B0BDEC048BBDE8F08FF0B504460D46CF
:103A400016461F46B44206DBA01B401C81B2442030
:103A5000FEF77CFF03E000214420FEF777FFBD4224
:103A600006DBE81B401C81B24520FEF76FFF03E038
:103A700000214520FEF76AFF29464620FEF766FF33
:103A800029462046FFF76BFAF0BD2DE9F8470746B7
:103A9000884614461D46DDF824904E4604FB05FA80
:103AA0002B46224641463846FFF7C7FF46F24801FB
:103AB0001120FEF74BFFFFF71AFA0020009006E0F6
:103AC00036F8020BFFF718FA0098401C0090009897
:103AD0005045F5D346F228011120FEF737FF40F29A
:103AE0003F13EF2200210846FFF7A7FFBDE8F88744
:103AF000360000203400002070B50446002500BFC9
:103B00000221F748FDF7E7FF0028F9D02146F448E5
:103B1000FDF7AAFF00BF0121F148FDF7DCFF0028F7
:103B2000F9D0EF48FDF79DFFC5B2284670BD0021D2
:103B300000E0491C8142FCD3704710B500244FF4CB
:103B40008051E848FDF702FB0A20FFF7F0FF9020C4
:103B5000FFF7D2FF0A20FFF7EAFFFF20FFF7CCFFB5
:103B600004464FF6FF7000EA04240020FFF7C4FF6C
:103B7000204484B24FF48051DA48FDF7E5FA24116D
:103B800000BF40F2FF70001B84B2204610BD10B58C
:103B900000244FF48051D348FDF7D8FA0A20FFF7EC
:103BA000C6FFD020FFF7A8FF0A20FFF7C0FF0020C4
:103BB000FFF7A2FF04464FF6FF7000EA042400203E
:103BC000FFF79AFF204484B24FF48051C548FDF7B7
:103BD000BBFA241100BF204610BD10B5FFF7D7FF78
:103BE000C1498880FFF7A9FFBF49C880012010BDE7
:103BF000704700B58BB001210A20FDF76FFC022051
:103C00008DF8140001208DF8150000208DF81600A5
:103C100001208DF817004FF46040049004A9B148CA
:103C2000FDF716FA05220D21AE48FDF79CFA052294
:103C30000E21AC48FDF797FA05220F21A948FDF7A0
:103C400092FA01218803FDF77CFCA548FDF784FD6D
:103C50000020ADF818004FF48270ADF81A00002073
:103C6000ADF81C000220ADF81E000120ADF82000C8
:103C70004002ADF822003820ADF824000020ADF855
:103C800026000720ADF8280006A99548FDF78AFD13
:103C900001219348FDF767FE01208DF814000220F2
:103CA0008DF8150000208DF8160001208DF8170002
:103CB0000003049004A98B48FDF7CAF94FF4805122
:103CC0008848FDF741FA00208DF8140002208DF895
:103CD000150000208DF8160001208DF817004020F7
:103CE000049004A98148FDF7B3F901218803FDF789
:103CF00039FC06210320FDF737FF4020019000200A
:103D00008DF808000C208DF8090001208DF80A00BC
:103D100001A8FCF7A1FD17208DF80C000F208DF8ED
:103D20000D008DF80E0001208DF80F0003A8FCF7A0
:103D300018FD0BB000BD2DE9F04106460C461546B6
:103D40000A2095FBF0F100FB11503030C7B23A4623
:103D500021B206F14000FFF74AF9642095FBF0F12B
:103D600000FB11500A2190FBF1F03030C7B23A4607
:103D700021B206F13000FFF73AF94FF47A7095FB63
:103D8000F0F100FB1150642190FBF1F03030C7B22C
:103D90003A4621B206F12000FFF729F942F21070ED
:103DA00095FBF0F100FB11504FF47A7190FBF1F0AC
:103DB0003030C7B23A4621B206F11000FFF717F9CA
:103DC00042F2107095FBF0F03030C7B23A4621B2A3
:103DD0003046FFF70CF9BDE8F081F0B58BB0002557
:103DE00000270EE0FFF7F9FE58B13F48808801A98F
:103DF00021F815003C48C18806A820F81510681C59
:103E0000C5B20A2DEEDB65D100BF0026002418E004
:103E100001A830F8141001AA601C32F81000814289
:103E20000DDD01A9601C31F8107001A830F81410E4
:103E3000601C22F8101001A820F814700126601CE4
:103E4000C4B2681EA042E3DC002EDED100BF002613
:103E5000002413E006A830F81420611C30F811008B
:103E6000824209DD06A830F8117030F8142020F8DD
:103E7000112020F814700126601CC4B2681EA042F4
:103E8000E8DC002EE3D1BDF80A00BDF80C100844B0
:103E9000BDF80E100844032190FBF1F01249888010
:103EA000BDF81E10BDF820000144BDF822000844F2
:103EB000032190FBF1F00C49C880084680880C492A
:103EC00008600948C0880B49086001200A49087049
:103ED0000BB0F0BD00200849087000BFF8E70000F3
:103EE0000038004000040240740E0020000C024024
:103EF0004C000020500000204400002010B540205D
:103F0000FCF710FD10B14020FCF71DFD10BD70B591
:103F100004460D4604F10D018AB2193988B22B46C8
:103F20002946FFF787FA05F10D0083B2193881B2EF
:103F300022462046FFF77EFA1F22681C01B2601C51
:103F400000B2FFF73FF8611E08B21F22691C09B2D8
:103F5000FFF738F8681E01B21F22601C00B2FFF79D
:103F600031F86A1E11B2621E10B21F22FFF72AF842
:103F7000062229462046FFF707FA70BD70B50546B0
:103F80000C461F2221B228B2FFF71CF81F2221B2D3
:103F9000681C00B2FFF716F81F22601C01B228B29D
:103FA000FFF710F81F22601C01B2681C00B2FFF777
:103FB00009F870BD10B5FFF710FFFE48B0F9140006
:103FC00000EE100AB8EEC00AFA4890ED031A808895
:103FD00000EE900AF8EE600A01EE200ABCEEC00A7C
:103FE00010EE100AF34908800846B0F9160000EEFA
:103FF000100AB8EEC00A084690ED041AC08800EE18
:10400000900AF8EE600A01EE200ABCEEC00A10EE3B
:10401000100A488010BD2DE9F0432DED048B85B0CA
:104020004FF0000900BF1F20FEF787FF4FF6FF701B
:10403000FEF783FF4FF6FF70FEF79DFF1421084641
:10404000FFF765FF9FEDDC0ADA4880ED030A5CE2CA
:10405000FFF7C3FE88B1D748808801A921F829005D
:10406000D448C08801EB8901488009F1010000F0C3
:10407000FF094FF6FF70FEF701FCB9F1010F09D0FF
:10408000B9F1020F0FD0B9F1030F16D0B9F1040F37
:1040900008D11CE04FF6FF70FEF76DFF1421D2200F
:1040A000FFF735FF2FE24FF6FF70FEF764FF4FF486
:1040B00096711420FFF72BFF25E24FF6FF70FEF7F5
:1040C0005AFF4FF49671D220FFF721FF1BE2BDF893
:1040D0000410BDF80820881A01D4014600E04142CE
:1040E0000C46BDF80620BDF80A10501A01D401464E
:1040F00000E041420D4664436D43601901F028FF22
:1041000041EC100BB0EE409AF0EE609A01F044FCE6
:10411000B0EE408AF0EE608A51EC180B01F0D4FE4C
:1041200086B2BDF80C10BDF81020881A01D40146E3
:1041300000E041420C46BDF80E20BDF81210501AA6
:1041400001D4014600E041420D4664436D436019CD
:1041500001F0FEFE41EC100BB0EE409AF0EE609ADA
:1041600001F01AFCB0EE408AF0EE608A51EC180BB8
:1041700001F0AAFE87B200EE106AF8EE400A00EEE7
:10418000107AB8EE400A80EE801A11EE108A40468E
:1041900002F02EF941EC100BB0EE408AF0EE608A8E
:1041A0009FED860B53EC102B51EC180B01F0E4FE45
:1041B00013D3404602F01CF941EC100BB0EE408ADC
:1041C000F0EE608A9FED7F0B53EC102B51EC180B37
:1041D00002F00CF801D306B157B94FF000094FF6C1
:1041E000FF70FEF7C8FE14210846FFF790FE8CE131
:1041F000BDF80410BDF80C20881A01D4014600E077
:1042000041420C46BDF80620BDF80E10501A01D4EC
:10421000014600E041420D4664436D43601901F0E0
:1042200097FE41EC100BB0EE409AF0EE609A01F070
:10423000B3FBB0EE408AF0EE608A51EC180B01F04F
:1042400043FE86B2BDF80810BDF81020881A01D4CC
:10425000014600E041420C46BDF80A20BDF81210AC
:10426000501A01D4014600E041420D4664436D43BB
:10427000601901F06DFE41EC100BB0EE409AF0EECB
:10428000609A01F089FBB0EE408AF0EE608A51EC52
:10429000180B01F019FE87B200EE106AF8EE400A22
:1042A00000EE107AB8EE400A80EE801A11EE108A05
:1042B000404602F09DF841EC100BB0EE408AF0EE63
:1042C000608A9FED3E0B53EC102B51EC180B01F064
:1042D00053FE11D3404602F08BF841EC100BB0EEC8
:1042E000408AF0EE608A9FED370B53EC102B51ECB7
:1042F000180B01F07BFF0AD24FF000094FF6FF7058
:10430000FEF739FE14210846FFF701FEFDE0BDF877
:104310000810BDF80C20881A01D4014600E0414283
:104320000C46BDF80A20BDF80E10501A01D4014603
:1043300000E041420D4664436D43601901F008FE00
:1043400041EC100BB0EE409AF0EE609A01F024FBC5
:10435000B0EE408AF0EE608A51EC180B01F0B4FD2B
:1043600086B2BDF80410BDF81020881A01D40146A9
:1043700000E041420C46BDF80620BDF81210501A6C
:1043800001D4014600E041420D4664436D4360198B
:1043900001F0DEFD41EC100BB0EE409AF0EE609AB9
:1043A00001F0FAFAB0EE408AF0EE608A51EC180B98
:1043B0000CE00000740E002000000000000000006F
:1043C0000000E83F000000000000F43F01F07CFD29
:1043D00087B200EE106AF8EE400A00EE107AB8EEEE
:1043E000400A80EE801A11EE108A404602F000F872
:1043F00041EC100BB0EE408AF0EE608A1FED110B1D
:1044000053EC102B51EC180B01F0B6FD11D34046C4
:1044100001F0EEFF41EC100BB0EE408AF0EE608A46
:104420001FED180B53EC102B51EC180B01F0DEFEB6
:104430000AD24FF000094FF6FF70FEF79CFD1421E1
:104440000846FFF764FD60E0BDF80800BDF8041001
:10445000401A00EE100AB8EEC00ADFED2C0A80EE1A
:10446000801A2B4880ED031ABDF80800BDF804102F
:10447000084400EE100AF8EEC00A254890ED031A31
:104480009FED240A01EE600AF0EE000A80EE201A89
:10449000BDEEC10A10EE100A00B21D498882BDF8B7
:1044A0000E00BDF80610401A00EE100AB8EEC00A61
:1044B000DFED190A80EE801A154880ED041ABDF868
:1044C0000E00BDF80610084400EE100AF8EEC00A0F
:1044D0000F4890ED041A9FED110A01EE600AF0EE0C
:1044E000000A80EE201ABDEEC10A10EE100A00B2DA
:1044F0000749C8824FF6FF70FEF73DFD05B0BDECE1
:10450000048BBDE8F08300BF00BFA1E50000484375
:10451000740E00200000704300008C430000A04394
:1045200010B52DED028BB0EE408A0446B5EEC08A80
:10453000F1EE10FA09DDB0EE480A01F06AFA84EDF6
:10454000000A0020BDEC028B10BD9FED3B0A84EDFC
:10455000000A4FF0FF30F5E72DE9F0412DED028B19
:1045600004460D461746BE0848E0B4EC010AF0EEDA
:10457000408AB4EC010AB0EE408A68EEA80A48EE20
:10458000080AB0EE600A28462D1DFFF7C9FFB4ECFB
:10459000010AF0EE408AB4EC010AB0EE408A68EEFF
:1045A000A80A48EE080AB0EE600A28462D1DFFF75B
:1045B000B7FFB4EC010AF0EE408AB4EC010AB0EEA9
:1045C000408A68EEA80A48EE080AB0EE600A28465B
:1045D0002D1DFFF7A5FFB4EC010AF0EE408AB4EC04
:1045E000010AB0EE408A68EEA80A48EE080AB0EE6A
:1045F000600A28462D1DFFF793FF761E002EB4D1CA
:1046000007F0030612E0B4EC010AF0EE408AB4ECC5
:10461000010AB0EE408A68EEA80A48EE080AB0EE39
:10462000600A28462D1DFFF77BFF761E002EEAD17B
:10463000BDEC028BBDE8F08100000000F0B50D4636
:1046400017461E4600226C104FF0010C0CEB650360
:104650000021C4E0914277DA00EBC10CDCED000AE6
:10466000B0EE600A00EBC20CDCED000A00EBC10CFE
:10467000CCED000A00EBC20C8CED000A4FEA410CB5
:104680000CF1010C00EB8C0CDCED000AB0EE600AC2
:104690004FEA420C0CF1010C00EB8C0CDCED000A33
:1046A0004FEA410C0CF1010C00EB8C0CCCED000A34
:1046B0004FEA420C0CF1010C00EB8C0C8CED000A63
:1046C00001EB030C00EBCC0CDCED000AB0EE600A51
:1046D00002EB030C00EBCC0CDCED000A01EB030C4D
:1046E00000EBCC0CCCED000A02EB030C00EBCC0C85
:1046F0008CED000A01EB030C4FEA4C0C0CF1010CA1
:1047000000EB8C0CDCED000AB0EE600A02EB030C4F
:104710004FEA4C0C0CF1010C00EB8C0CDCED000AA8
:1047200001EB030C4FEA4C0C0CF1010C00EB8C0C70
:10473000CCED000A02EB030C4FEA4C0C0CF1010C1F
:1047400000EB8C0C8CED000A01F1010C00EBCC0CA1
:10475000DCED000AB0EE600A02EB040C00EBCC0CBE
:10476000DCED000A01F1010C00EBCC0CCCED000AF1
:1047700002EB040C00EBCC0C8CED000A01F1010CF7
:104780004FEA4C0C0CF1010C00EB8C0CDCED000A38
:10479000B0EE600A02EB040C4FEA4C0C0CF1010C79
:1047A00000EB8C0CDCED000A01F1010C4FEA4C0C23
:1047B0000CF1010C00EB8C0CCCED000A02EB040CAC
:1047C0004FEA4C0C0CF1010C00EB8C0C8CED000A48
:1047D000328806EB470601F1020C1FFA8CF1A4F1B6
:1047E000020C8C45BFF436AFF0BD2DE9FF4F82B00F
:1047F0008C4616466546AA46AD080021002701955D
:1048000000BF4A1953195C1900EBC10B9BED006AFC
:1048100000EBC30BDBED006A36EE266AB0EE460A0B
:1048200000EBC10B9BED006A00EBC30BDBED006AF4
:1048300036EE666AB0EE462A4FEA410B0BF1010BE9
:1048400000EB8B0B9BED006A4FEA430B0BF1010B66
:1048500000EB8B0BDBED006A36EE266AF0EE460AC3
:104860004FEA410B0BF1010B00EB8B0B9BED006A48
:104870004FEA430B0BF1010B00EB8B0BDBED006AF6
:1048800036EE666AF0EE462A00EBC20B9BED006A3C
:1048900000EBC40BDBED006A36EE266AB0EE461A7A
:1048A00030EE016A00EBC10B8BED006A30EE416A1D
:1048B000B0EE460A4FEA420B0BF1010B00EB8B0BFB
:1048C0009BED006A4FEA440B0BF1010B00EB8B0BE5
:1048D000DBED006A36EE266AF0EE461A30EEA16A8B
:1048E0004FEA410B0BF1010B00EB8B0B8BED006AD8
:1048F00030EEE16AF0EE460A4FEA420B0BF1010B93
:1049000000EB8B0B9BED006A4FEA440B0BF1010BA4
:1049100000EB8B0BDBED006A36EE666AB0EE461AF2
:1049200000EBC20B9BED006A00EBC40BDBED006AF1
:1049300036EE666AF0EE461A4FEA470806EBC80BF9
:10494000DBED003A4FF0010B0BEB480B06EB8B0B4A
:104950009BED005A20EE236A00EE856A00EBC20B45
:104960008BED006A20EEA36A00EE456A4FEA420B27
:104970000BF1010B00EB8B0B8BED006A32EE016A41
:10498000B0EE460A32EE416AB0EE462A32EEE16AF5
:10499000F0EE460A32EEA16AF0EE462A06EBC70BAD
:1049A0009BED003A4FF0010B0BEB470B06EB8B0B2B
:1049B000DBED004A20EE036A00EEA46A00EBC30BB5
:1049C0008BED006A20EE836A00EE646A4FEA430BC7
:1049D0000BF1010B00EB8B0B8BED006A08EB070969
:1049E00006EBC90B9BED004A4FF0010B0BEB490B9B
:1049F00006EB8B0BDBED005A22EE046A02EEA56A91
:104A000000EBC40B8BED006A22EE846A02EE656A4D
:104A10004FEA440B0BF1010B00EB8B0B8BED006AA3
:104A2000DDF814B05F44491CDDF804B0BBF1010BA4
:104A3000CDF804B07FF4E5AE4FF6FF7EDDF814B09C
:104A40000EEA8B0BCDF814B0E3464FEAEC7E0CEB8C
:104A50009E7E4FEAAE0ECDF800E045E1AA46AD08D5
:104A60000027BB46CDF804B029E14FEA470808EB20
:104A7000070906EBC70B9BED006AB0EE463A4FF014
:104A8000010B0BEB470B06EB8B0B9BED006AF0EE7B
:104A9000464A06EBC80B9BED006AF0EE463A4FF033
:104AA000010B0BEB480B06EB8B0B9BED006AB0EE9A
:104AB000465A06EBC90B9BED006AB0EE464A4FF032
:104AC000010B0BEB490B06EB8B0B9BED006AF0EE39
:104AD000465ADDF814B05F440199E7E04A195319CA
:104AE0005C1900EBC10B9BED006A00EBC30BDBED27
:104AF000006A36EE266AB0EE460A00EBC10B9BED6B
:104B0000006A00EBC30BDBED006A36EE666AB0EEBE
:104B1000462A4FEA410B0BF1010B00EB8B0B9BED8F
:104B2000006A4FEA430B0BF1010B00EB8B0BDBED43
:104B3000006A36EE266AF0EE460A4FEA410B0BF1A8
:104B4000010B00EB8B0B9BED006A4FEA430B0BF163
:104B5000010B00EB8B0BDBED006A36EE666AF0EEC4
:104B6000462A00EBC20B9BED006A00EBC40BDBEDA9
:104B7000006A36EE266AB0EE461A30EE016A00EBA5
:104B8000C10B8BED006A30EE416AB0EE460A4FEA87
:104B9000420B0BF1010B00EB8B0B9BED006A4FEA14
:104BA000440B0BF1010B00EB8B0BDBED006A36EED7
:104BB000266AF0EE461A30EEA16A4FEA410B0BF17D
:104BC000010B00EB8B0B8BED006A30EEE16AF0EE2F
:104BD000460A4FEA420B0BF1010B00EB8B0B9BEDEE
:104BE000006A4FEA440B0BF1010B00EB8B0BDBED82
:104BF000006A36EE666AB0EE461A00EBC20B9BED19
:104C0000006A00EBC40BDBED006A36EE666AF0EE7C
:104C1000461A20EE236A00EE856A00EBC20B8BED8C
:104C2000006A20EEA36A00EE456A4FEA420B0BF1E0
:104C3000010B00EB8B0B8BED006A32EE016AB0EEDC
:104C4000460A32EE416AB0EE462A32EEE16AF0EEF2
:104C5000460A32EEA16AF0EE462A20EE036A00EE22
:104C6000A46A00EBC30B8BED006A20EE836A00EEB2
:104C7000646A4FEA430B0BF1010B00EB8B0B8BEDDE
:104C8000006A22EE046A02EEA56A00EBC40B8BED0B
:104C9000006A22EE846A02EE656A4FEA440B0BF169
:104CA000010B00EB8B0B8BED006A51446145FFF467
:104CB00015AFDDF804B00BF1010BCDF804B0A5F190
:104CC000010BDDF804E0F345BFF4CFAE4FF6FF7EF5
:104CD000DDF814B00EEA8B0BCDF814B0DDF800B09F
:104CE0004FEA9B0BCDF800B0DDF800B0BBF1040F2C
:104CF0003FF6B4AEAA46AD080021CFE04A195319D9
:104D00005C1900EBC10B9BED006A00EBC30BDBED04
:104D1000006A36EE266AB0EE460A00EBC10B9BED48
:104D2000006A00EBC30BDBED006A36EE666AB0EE9C
:104D3000462A4FEA410B0BF1010B00EB8B0B9BED6D
:104D4000006A4FEA430B0BF1010B00EB8B0BDBED21
:104D5000006A36EE266AF0EE460A4FEA410B0BF186
:104D6000010B00EB8B0B9BED006A4FEA430B0BF141
:104D7000010B00EB8B0BDBED006A36EE666AF0EEA2
:104D8000462A00EBC20B9BED006A00EBC40BDBED87
:104D9000006A36EE266AB0EE461A30EE016A00EB83
:104DA000C10B8BED006A30EE416AB0EE460A4FEA65
:104DB000420B0BF1010B00EB8B0B9BED006A4FEAF2
:104DC000440B0BF1010B00EB8B0BDBED006A36EEB5
:104DD000266AF0EE461A30EEA16A4FEA410B0BF15B
:104DE000010B00EB8B0B8BED006A30EEE16AF0EE0D
:104DF000460A4FEA420B0BF1010B00EB8B0B9BEDCC
:104E0000006A4FEA440B0BF1010B00EB8B0BDBED5F
:104E1000006A36EE666AB0EE461A00EBC20B9BEDF6
:104E2000006A00EBC40BDBED006A36EE666AF0EE5A
:104E3000461A00EBC20B8BED000A4FEA420B0BF156
:104E4000010B00EB8B0BCBED000A32EE016AB0EEEA
:104E5000460A32EE416AB0EE462A32EEE16AF0EEE0
:104E6000460A32EEA16AF0EE462A00EBC30B8BED48
:104E7000000A4FEA430B0BF1010B00EB8B0BCBED60
:104E8000000A00EBC40B8BED002A4FEA440B0BF138
:104E9000010B00EB8B0BCBED002A5144ACEB0A0B62
:104EA0008B45BFF42BAF06B0BDE8F08F2DE9FF4F67
:104EB0002DED020B82B08C461646B0EE403A6546A8
:104EC000AA46AD0800210027019500BF4A195319D1
:104ED0005C1900EBC10BDBED006A00EBC30B9BED33
:104EE000007A76EE876AB0EE660A00EBC10BDBED66
:104EF000006A00EBC30B9BED007A76EEC76AB0EE5A
:104F0000662A4FEA410B0BF1010B00EB8B0BDBED3B
:104F1000006A4FEA430B0BF1010B00EB8B0B9BED8F
:104F2000007A76EE876AF0EE660A4FEA410B0BF1E3
:104F3000010B00EB8B0BDBED006A4FEA430B0BF12F
:104F4000010B00EB8B0B9BED007A76EEC76AF0EE5F
:104F5000662A00EBC20BDBED006A00EBC40B9BED95
:104F6000007A76EE876AB0EE661A70EE016A00EBA0
:104F7000C10BCBED006A70EE416AB0EE660A4FEAF3
:104F8000420B0BF1010B00EB8B0BDBED006A4FEAE0
:104F9000440B0BF1010B00EB8B0B9BED007A76EED3
:104FA000876AF0EE661A70EEA16A4FEA410B0BF1C8
:104FB000010B00EB8B0BCBED006A70EEE16AF0EEBB
:104FC000660A4FEA420B0BF1010B00EB8B0BDBED9A
:104FD000006A4FEA440B0BF1010B00EB8B0B9BEDCE
:104FE000007A76EEC76AB0EE661A00EBC20BDBED14
:104FF000006A00EBC40B9BED007A76EEC76AF0EE18
:10500000661A4FEA470806EBC80B9BED004A4FF0C3
:10501000010B0BEB480B06EB8B0BDBED005A60EE44
:10502000046A40EEE56A00EBC20BCBED006A60EE6D
:10503000846A40EE256A4FEA420B0BF1010B00EB4C
:105040008B0BCBED006A72EE416AB0EE660A72EE2F
:10505000016AB0EE662A72EEA16AF0EE660A72EE9E
:10506000E16AF0EE662A06EBC70BDBED003A4FF083
:10507000010B0BEB470B06EB8B0B9BED005A60EE25
:10508000236A40EEC56A00EBC30BCBED006A60EE0D
:10509000A36A40EE056A4FEA430B0BF1010B00EBEC
:1050A0008B0BCBED006A08EB070906EBC90BDBEDB8
:1050B000004A4FF0010B0BEB490B06EB8B0B9BED02
:1050C000006A62EE246A42EEC66A00EBC40BCBEDC6
:1050D000006A62EEA46A42EE066A4FEA440B0BF1E4
:1050E000010B00EB8B0BCBED006ADDF81CB05F44CD
:1050F000491CDDF804B0BBF1010BCDF804B07FF41E
:10510000E5AE4FF6FF7EDDF81CB00EEA8B0BCDF856
:105110001CB0E3464FEAEC7E0CEB9E7E4FEAAE0EEF
:10512000CDF800E045E1AA46AD080027BB46CDF822
:1051300004B029E14FEA470808EB070906EBC70B63
:10514000DBED006AF0EE663A4FF0010B0BEB470B1C
:1051500006EB8B0BDBED006AB0EE665A06EBC80B74
:10516000DBED006AB0EE664A4FF0010B0BEB480B2B
:1051700006EB8B0BDBED006AF0EE665A06EBC90B13
:10518000DBED006AF0EE664A4FF0010B0BEB490BCA
:1051900006EB8B0BDBED006AB0EE666ADDF81CB047
:1051A0005F440199E7E04A1953195C1900EBC10B00
:1051B000DBED006A00EBC30B9BED007A76EE876AAD
:1051C000B0EE660A00EBC10BDBED006A00EBC30B2F
:1051D0009BED007A76EEC76AB0EE662A4FEA410B85
:1051E0000BF1010B00EB8B0BDBED006A4FEA430B7D
:1051F0000BF1010B00EB8B0B9BED007A76EE876ACF
:10520000F0EE660A4FEA410B0BF1010B00EB8B0B42
:10521000DBED006A4FEA430B0BF1010B00EB8B0B4C
:105220009BED007A76EEC76AF0EE662A00EBC20BC1
:10523000DBED006A00EBC40B9BED007A76EE876A2B
:10524000B0EE661A70EE016A00EBC10BCBED006A9E
:1052500070EE416AB0EE660A4FEA420B0BF1010BA9
:1052600000EB8B0BDBED006A4FEA440B0BF1010BFB
:1052700000EB8B0B9BED007A76EE876AF0EE661AF8
:1052800070EEA16A4FEA410B0BF1010B00EB8B0BA7
:10529000CBED006A70EEE16AF0EE660A4FEA420B6F
:1052A0000BF1010B00EB8B0BDBED006A4FEA440BBB
:1052B0000BF1010B00EB8B0B9BED007A76EEC76ACE
:1052C000B0EE661A00EBC20BDBED006A00EBC40B1C
:1052D0009BED007A76EEC76AF0EE661A60EE046A1D
:1052E00040EEE56A00EBC20BCBED006A60EE846A2B
:1052F00040EE256A4FEA420B0BF1010B00EB8B0BE2
:10530000CBED006A72EE416AB0EE660A72EE016A97
:10531000B0EE662A72EEA16AF0EE660A72EEE16AFB
:10532000F0EE662A60EE236A40EEC56A00EBC30B1E
:10533000CBED006A60EEA36A40EE056A4FEA430BCC
:105340000BF1010B00EB8B0BCBED006A62EE246AD4
:1053500042EEC66A00EBC40BCBED006A62EEA46AB3
:1053600042EE066A4FEA440B0BF1010B00EB8B0B8C
:10537000CBED006A51446145FFF415AFDDF804B090
:105380000BF1010BCDF804B0A5F1010BDDF804E041
:10539000F345BFF4CFAE4FF6FF7EDDF81CB00EEA4A
:1053A0008B0BCDF81CB0DDF800B04FEA9B0BCDF8AD
:1053B00000B0DDF800B0BBF1040F3FF6B4AEAA4672
:1053C000AD080021DFE04A1953195C1900EBC10B4D
:1053D000DBED006A00EBC30B9BED007A76EE876A8B
:1053E000B0EE660A00EBC10BDBED006A00EBC30B0D
:1053F0009BED007A76EEC76AB0EE662A4FEA410B63
:105400000BF1010B00EB8B0BDBED006A4FEA430B5A
:105410000BF1010B00EB8B0B9BED007A76EE876AAC
:10542000F0EE660A4FEA410B0BF1010B00EB8B0B20
:10543000DBED006A4FEA430B0BF1010B00EB8B0B2A
:105440009BED007A76EEC76AF0EE662A00EBC20B9F
:10545000DBED006A00EBC40B9BED007A76EE876A09
:10546000B0EE661A70EE016A66EE836A00EBC10B5D
:10547000CBED006A70EE416AB0EE660A4FEA420B6D
:105480000BF1010B00EB8B0BDBED006A4FEA440BD9
:105490000BF1010B00EB8B0B9BED007A76EE876A2C
:1054A000F0EE661A70EEA16A66EE836A4FEA410B6F
:1054B0000BF1010B00EB8B0BCBED006A70EEE16A98
:1054C000F0EE660A4FEA420B0BF1010B00EB8B0B7F
:1054D000DBED006A4FEA440B0BF1010B00EB8B0B89
:1054E0009BED007A76EEC76AB0EE661A00EBC20B4F
:1054F000DBED006A00EBC40B9BED007A76EEC76A29
:10550000F0EE661A60EE036A00EBC20BCBED006AA8
:1055100060EE836A4FEA420B0BF1010B00EB8B0B41
:10552000CBED006A72EE416AB0EE660A72EE016A75
:10553000B0EE662A72EEA16AF0EE660A72EEE16AD9
:10554000F0EE662A60EE036A00EBC30BCBED006A57
:1055500060EE836A4FEA430B0BF1010B00EB8B0B00
:10556000CBED006A62EE036A00EBC40BCBED006A80
:1055700062EE836A4FEA440B0BF1010B00EB8B0BDD
:10558000CBED006A5144ACEB0A0B8B45BFF41BAF6B
:1055900008B0BDE8F08F30B504460D46A07801286C
:1055A0000AD1D4ED040AB0EE600AA3892188284606
:1055B0006268FFF77BFC05E0A389218828466268C2
:1055C000FFF713F9E078012805D1E2892188284600
:1055D000A368FFF733F830BD30B5044600202180C2
:1055E0001F4D6560A270E3702588102D27D0402DD7
:1055F0001AD0B5F5807F0CD0B5F5806F2AD1012582
:10560000A581E581174DA5609FED170A84ED040A79
:1056100023E00425A581E581124DAD1DA5609FED18
:10562000130A84ED040A18E01025A581E5810D4DCB
:105630001E35A5609FED0E0A84ED040A0DE040259D
:10564000A581E581074D7E35A5609FED0A0A84EDB1
:10565000040A02E04FF0FF3000BF00BF30BD000081
:10566000FC8C0008FCAC00080000803A0000803B85
:105670000000803C0000803D032A40F2308010F0A2
:10568000030C00F0158011F8013BBCF1020F6244DD
:1056900098BF11F801CB00F8013B38BF11F8013B6E
:1056A000A2F1040298BF00F801CB38BF00F8013B1B
:1056B00011F0030300F03380083AC0F0088051F87D
:1056C000043B083A51F804CBA0E80810F5E7121D96
:1056D0005CBF51F8043B40F8043BAFF30080D207B5
:1056E00024BF11F8013B11F801CB48BF11F8012B81
:1056F00024BF00F8013B00F801CB48BF00F8012BA4
:10570000704770477047704710B500F03BF800686D
:1057100010BD10B5044600F035F8046010BD10B59A
:10572000203AC0F00B80B1E81850203AA0E8185099
:10573000B1E81850A0E81850BFF4F5AF5FEA027C5A
:1057400024BFB1E81850A0E8185044BF18C918C0C9
:10575000BDE810405FEA827C24BF51F8043B40F86A
:10576000043B08BF7047D20728BF31F8023B48BF4F
:1057700011F8012B28BF20F8023B48BF00F8012B8D
:1057800070470000004870478C0E002000487047AA
:105790008C0E00207546FFF7F9FFAE4605006946FE
:1057A000534620F00700854618B020B5FAF74AFDA9
:1057B000BDE820404FF000064FF000074FF0000812
:1057C0004FF0000B21F00701AC46ACE8C009ACE893
:1057D000C009ACE8C009ACE8C0098D467047044672
:1057E000AFF300802046FAF718FD000001491820A9
:1057F000ABBEFEE72600020070474100080218BF5A
:1058000004200A0E18BF40F001004FF07F4232EA38
:10581000010108BF40F00200012808BF05207047C1
:1058200000B510EE101A2DED028B81B04B4A684680
:10583000B2EB410F09D94FF0E640B0EB410F8CBFFE
:105840004FF0FF30002000902FE0454B21F0004248
:10585000934228D9DFED430A11F0004F20EE201AC1
:10586000DFED410A19BF31EE601A71EE200A31EE08
:10587000201A71EE600ABDEEE01A11EE100A9FEDDB
:105880003B1A00F0030000EEC10A9FED391A0090A8
:1058900000EEC10A9FED371A00EEC10A9FED361ADD
:1058A00000EEC10A01E000F0D9F80098B0EE408A9D
:1058B000002823DA18EE100A4000B0F17F4F88BFAD
:1058C00038EE080A0DD218EE100AFFF796FF0428EA
:1058D00008BF00F0BBF8B0EE480A01B0BDEC028B87
:1058E00000BD1EBF01B0BDEC028B00BD0120FFF763
:1058F00010FFDFED220A80EEA00AEEE710F0010FA4
:1059000015D068EE080A9FED1E1A9FED1E0A10F0D2
:10591000020F00EE810A9FED1C1A00EE801AB7EE0E
:10592000000A00EE810AD8D0B1EE400AD5E728EE91
:10593000080A9FED161ADFED160A10F0020F40EE6E
:10594000410A9FED141A00EE201A61EE000AB0EE33
:10595000480A08EE200AE7D1BFE70000B61F927E92
:10596000490E494683F9223F0000004B0000C93F21
:1059700000A0FD390020A2331A61342C0000000081
:10598000B93AB2BACA9F2A3DDDFFFFBE336D4C392A
:10599000DA82083CA0AA2ABE00B52DED048BB0EE39
:1059A000408AF0EE608A83B051EC180B00F054FC92
:1059B00041EC190B19EE100A19EE901A8DED009BAF
:1059C000002818BF0120084320F00040C0F17F608C
:1059D00000F1E040C00F14D018EE101A18EE900A33
:1059E0008DED008B002918BF0121084320F00040F5
:1059F000C0F17F6000F1E040C00F04BF0120FFF75D
:105A000088FEB0EE490A03B0F0EE690ABDEC048BE3
:105A100000BD10B52DED028BB1EEC08A18EE100A54
:105A200020F00040C0F1FF40C00F0AD010EE100A75
:105A300020F00040C0F1FF40C00F04BF0120FFF77D
:105A400068FEB0EE480ABDEC028B10BD9FED020A65
:105A500020EE000A70470000000000102DE9F00160
:105A60004FF07F42B2EB410F9FBF4FF0FF3101601B
:105A7000BDE8F00170474FF0004242EA0123C1F354
:105A8000C752783A541102F01F023E4DC2F1200C69
:105A90007D4455F8246005EB840596406C6824FA33
:105AA0000CF73743AE68944026FA0CF8ED6806FA16
:105AB00002F225FA0CFC42EA0C0644EA0804A7FBB1
:105AC00003C5A4FB0342A6FB03631C449C4234BFF2
:105AD0000126002602EB0C03334416B1934202D98F
